:020000041000EA
:1000000000B5324B212058609868022188439860DF
:10001000D860186158612E4B002199600221596106
:100020000121F02299502B49196001219960352056
:1000300000F044F80222904214D00621196600F024
:1000400034F8196E01211966002018661A6600F04E
:100050002CF8196E196E196E052000F02FF8012189
:100060000842F9D1002199601B49196000215960AB
:100070001A491B48016001219960EB211966A021F2
:10008000196600F012F800219960164914480160C1
:100090000121996001BC002800D000471248134993
:1000A000086003C880F30888084703B5996A0420EC
:1000B0000142FBD001200142F8D103BD02B5186610
:1000C0001866FFF7F2FF186E186E02BD00000240BE
:1000D000000000180000070000035F00212200005C
:1000E000F4000018222000A00001001008ED00E03C
:1000F00000000000000000000000000074B24E7A12
:1001000000200420F7010010C3010010C5010010F9
:10011000C1010010C1010010C1010010C101001097
:10012000C1010010C1010010C1010010C701001081
:10013000C1010010C1010010C9010010CB01001065
:10014000CD010010CD010010CD010010CD01001037
:10015000CD010010CD010010CD010010CD01001027
:10016000CD010010CD010010CD010010CD01001017
:10017000CD010010CD010010CD010010CD01001007
:10018000CD010010CD010010CD010010CD010010F7
:10019000CD010010CD010010CD010010CD010010E7
:1001A000CD010010CD010010CD010010CD010010D7
:1001B000CD010010CD010010CD010010CD010010C7
:1001C00000BE00BE00BE00BE00BE00BEEFF3058054
:1001D000103800BEF2EB8871184900103C4900103D
:1001E0003802001090A31AE71E481F49086006C88D
:1001F00081F3088810471D480068002801D019487D
:10020000F3E70DA40ECC002902D000F012F8F9E7B4
:100210001749184A002000E001C19142FCD116495B
:100220008847164988471649884700BEFDE701C937
:1002300001C29A42FBD370473C490010C000002025
:1002400060100020DC580010000004200000042092
:10025000DC580010001004200010042000000000F2
:10026000704700000000000008ED00E0000000D032
:1002700060100020D820002009190010D5020010BD
:1002800001190010F8B5C04606480749091A8B1035
:10029000C90FC91810B5491003D0044B002B00D06A
:1002A000984710BD60100020601000200000000082
:1002B000054B10B5002B03D00449054800E000BFF2
:1002C000FFF7E2FF10BDC04600000000741F0020D1
:1002D000D444001010B501F017FC044C200001F0CC
:1002E00063FCFA20800000F067FEF7E7D4440010BA
:1002F0008023DB051868000F7047C0460FB400B5B7
:10030000084883B001F050FC049B002B07D005A9DE
:100310001800019101F0DAFA034801F045FC0120D0
:1003200001F0ECFAE4440010F444001070B5EFF36F
:10033000108C72B60D4D2B68002BFCD0BFF35F8F75
:100340000724CB08C618C05C01230C40A3401C0046
:100350000440034207D118433070BFF35F8F2C6015
:100360008CF3108870BD1000FFF7C8FF2C0100D07F
:10037000F8B54746CE46884680B5EFF3108C72B686
:10038000214D2C68002CFCD0BFF35F8F9A422CD8F3
:10039000D4080727055D061901241740BC402C42EC
:1003A0001FD007210127894609E0D408055D0619F9
:1003B0004C4639001440A1400C00294211D00132B2
:1003C0009342F2D201204042BFF35F8F00220E4BD6
:1003D0001A608CF3108800280FDBC0BCB946B04609
:1003E000F8BD254310003570EEE7BFF35F8F0023A3
:1003F0002B608CF31088012040424346002BECD048
:100400000898FFF77BFFC0462C0100D0044A107803
:10041000431CDBB2172B00D9102313707047C04662
:10042000980F002010B5064B064C82B001000093D7
:1004300018221F232000FFF79BFF02B010BDC0460B
:10044000F8440010041B00200021044B044ABFF3B1
:100450005F8F02C39342FAD17047C046000100D0BB
:10046000800100D0054B064A1360064A13605360B2
:100470009360D36013615361936170478080808083
:1004800000E400E004E400E01F2318401E3B83402A
:10049000002905D0C021044A490053501360704719
:1004A000802201498B50FAE700E100E001228240FE
:1004B000034B1B6813405A1E9341D8B27047C04685
:1004C00000E100E001238340014A13607047C04609
:1004D00000E200E0084B10309B688000C358002BFE
:1004E00007D0064A00209B1A2F229A424041C0B2F0
:1004F00070470020FCE7C04600ED00E09C0F0020A4
:1005000070B50D00EFF3108672B60F4A1368002B1A
:10051000FCD0BFF35F8F0D4B10309B6884001B59DC
:100520000B4A934203D09D4201D000F0F5FF074BE8
:100530009B681D51BFF35F8FBFF35F8F0022024B9B
:100540001A6086F3108870BD240100D000ED00E031
:10055000CD010010F0B557464E46DE464546E0B5A3
:1005600085B0060000911700EFF3108B72B66A4A4F
:100570001368002BFCD0BFF35F8F0025674B5D57DE
:100580009A46002D00DAA9E06B00654C01935B19D7
:100590009B009846A146C1444B4652469B79103673
:1005A0001370604BB6009B6899590B1B2F2B33D9E6
:1005B0005D4B994200D0ACE0019B42469C465B4BB0
:1005C0006544AD0063535A4B0232A218043B9B1A98
:1005D0001B05584A5B0D651913436B80564B01216F
:1005E000AB80FF23AB71009BEF71AB604B460B43BD
:1005F00019004C4B9B689951BFF35F8FBFF35F8F1E
:100600000022454B1A608BF3108805B0F0BCBB4646
:10061000B246A946A046F0BD01200A008243D37924
:100620008C46BB4231D84546130044491B1B5B41F5
:100630005943090D3D4B63533D4B02356519043B4E
:100640005B1B1B053B4D5B0D2B43AA464D466B8048
:100650000425AC465546E044131F44441B1B1B05B0
:100660005B0D1D434B46997100999D8099604946E9
:10067000DF71334B01431360BBE75800C0188000A3
:100680002018C179B9422FD902000623D356002B76
:10069000F3DA02932B4B61460393131D9A4604230E
:1006A0005B429C46E14450464B461B1A1B055B0DC2
:1006B0009C46204B95719846634640460343938081
:1006C000019B5A199200039BA418A380029B1C4A09
:1006D000A371009B2260E771A3608AE700F01CFF12
:1006E000002553465D574FE7908802934005131D40
:1006F0009A46031561469C464046D44463460430FE
:100700002018181AE0230005400D1B02184303901F
:10071000C5E700F001FF4FE7240100D0D120002001
:100720009C0F002000ED00E0CD01001000A1FFFFB4
:10073000CC0F002000E0FFFF01BDFFFFAAAA0000D0
:100740000148804701BD000070B501240443EFF368
:100750000581EFF3108C72B6214A1368002BFCD090
:10076000BFF35F8F1F4B05001F4AED1A6D416A43AF
:10077000120D1E4D8900AE6852B27658A6421CD0AA
:100780000621595691421CD012215956914222D02D
:100790001E215956914220D02A21595603249142B4
:1007A00010D0134B19781A708171BFF35F8F00223C
:1007B0000B4B1A608CF3108870BDAB680D4C5C500D
:1007C000EFE700246100091989005B18FF21997186
:1007D00009499980E5E70124F4E70224F2E7C046DD
:1007E000240100D09C0F0020AAAA000000ED00E028
:1007F000D1200020CD01001001BDFFFF10B5084B36
:10080000084C82B001000093002205232000FFF76E
:10081000AFFD002801DB1F23181A02B010BDC0462F
:1008200014450010D5200020024B9C4661448900ED
:10083000016070474000003470B5114C114DAC425E
:100840000FD2FF262368002B0CD0FFF7DFFD01003D
:100850002000FFF7E9FFA680BFF35F8F0834AC42AA
:10086000F0D370BDFFF7D2FD01002000FFF7DCFFE1
:100870002671BFF35F8F0834AC42E3D3F1E7C04683
:10088000581000206010002010B50400FFF7BEFDD6
:1008900001002000FFF7C8FFFF232371BFF35F8F24
:1008A00010BDC04610B504000120FFF7BBFD034B8F
:1008B000C3189B002360BFF35F8F10BD400000345E
:1008C000034B9C46614489000160BFF35F8F704712
:1008D000400000340A4B1968EFF3108072B60A68C2
:1008E000002AFCD0BFF35F8F1B68BFF35F8F00222D
:1008F0001A6080F3108840BF002000217047C04676
:10090000B0200020F0B5DE4657464E464546E0B5DD
:1009100083B0EFF3058203231340B54A9900525880
:100920000091904601229A40B24B93461A60B24B16
:1009300001932EE043469B881BB2002B00DB99E01D
:1009400043469B79002B00D0DDE0434608241C5F22
:10095000002C00DA06E143465A6963001B19DB00EC
:10096000D3189D68DC686B1C00D107E1A34B00998C
:100970009C4661449A6A0B69A81A9B1A984200D255
:100980000D619E4800F0AEFB8C4200DDEAE000D134
:1009900026E15B4699484363434608229B5E99469D
:1009A000002BC7DB424652695B0092464B44DB009A
:1009B0009A4453469E68DF6800F094FB8F42B9DC8E
:1009C00000D100E1002F00DAE1E0524653465469BD
:1009D0001B69019A934200D1D4E041465246082057
:1009E000085E5288000421001043984704000D005F
:1009F00023002B4300D1CAE0002D00DBE7E03000EC
:100A00003900001BA94153469860D96000229A5EC4
:100A1000002A8FDB43465D6953009C18E4002C19C3
:100A2000A768E4688C4200DD84E702D1874200D9E0
:100A300080E74646328108360DE08C4200D1D3E093
:100A40001E000023F25E002A0ADB53009C18E4001B
:100A50002C19A768E4689B18DB00EB188C42ECDDCE
:100A600053461A804B46338043469B881BB2002B6B
:100A700000DA65E743461A69EFF3108172B613682E
:100A8000002BFCD0BFF35F8F43469E880123424674
:100A90005B42938036B21369BFF35F8F00221A6006
:100AA00081F31088002E00DA4AE743465D69083377
:100AB00042469C467700BF19FF00EF19BB686046AD
:100AC00098460823D15E9246FC68002907DA0EE0BA
:100AD000A2424FD018000023C15E002906DB4B0064
:100AE0005B18DB00EB18DA68A242F1DD52460680A3
:100AF0000023FE5E3980002EDCDA904643469B7967
:100B0000002B00D121E7002342469371434646461D
:100B10000821595E08364B1C24D047468946556942
:100B200002E006004B1C18D04B005B18DB00E818F5
:100B30000A008C46E95E43881BB2002BF1DA0123E0
:100B40005B42DC178360C4604A4503D031803B8937
:100B500003803A81E1464B1CE6D14C46B846002C56
:100B600000DBF8E640BF03B0F0BCBB46B246A94686
:100B7000A046F0BD9A684245ACD9B7E7631C00D0E7
:100B8000F4E6FEE6200023699847002825D1534665
:100B900042461B8813811269EFF3108372B6116805
:100BA0000029FCD0BFF35F8F4246514652880A802D
:100BB0004246494651801269BFF35F8F00211160A0
:100BC00083F31088B6E6864200D8FBE6B2E60B480F
:100BD00000F088FA0019694115E76568246807E79D
:100BE000854200D8D5E6BDE7874200D828E737E739
:100BF000941F00203C70054005090010004005408E
:100C000070B52E4C2569002D04D00A212C48FFF721
:100C10000BFE70BD2B4E0321300000F059FAE66048
:100C2000FFF7F4FB284B03229C46D02322701B06BF
:100C30001B6801216370254B6044A3600F23800073
:100C400020610220638063694942A18019800231DA
:100C5000198647311D83585218315A5275325C3902
:100C60009952183201319952183201319952183281
:100C700001319952083518329D5202311832995279
:100C8000183201319952183201319952183201311A
:100C900099521832013199521832013199520C4B44
:100CA0000C49DC6001303562FFF72AFC012103208A
:100CB000FFF7EAFB084B1D60A7E7C046E40F0020E2
:100CC000B02000200040054040000034FFFF10002D
:100CD000941F002005090010386005400048704747
:100CE000E40F0020F8B51F0008AB1B7804001600C5
:100CF000002B08D100F0FEF932003B00121A8B41A4
:100D0000002B00DA53E02269EFF3108072B613680B
:100D1000002BFCD0BFF35F8F0223E15E63694A00C2
:100D20005218D2009B18002937DB1A88628022698A
:100D3000BFF35F8F0025156080F31088069A9E60D0
:100D4000DF601A61079A5A615A8801325204520CC4
:100D5000101C002A1FD082B2588008041043266954
:100D6000EFF3108772B63268002AFCD0BFF35F8FB2
:100D7000A2881A80A1802369BFF35F8F00221A60C6
:100D800087F310880B4923788C4601329A40E36838
:100D900063441A60F8BD0120DDE72369BFF35F8F6C
:100DA00000221A6080F3108801204042F2E7002000
:100DB000F0E7C0463C20000070B501000469EFF385
:100DC000108C72B620680028FCD0BFF35F8F022021
:100DD0000D5E4C6968004019C0002418002D37DBF7
:100DE000208848800869BFF35F8F002606608CF377
:100DF0001088E36063880498013320615B040598E0
:100E00005B0CA26060611A1C002B1FD093B22804F7
:100E1000628018430A69EFF3108C72B61368002BD6
:100E2000FCD0BFF35F8F8B8823808D800B69BFF36D
:100E30005F8F00221A608CF310880B7801329A4081
:100E4000CB6808498C4663441A6070BD0122DDE717
:100E50000B69BFF35F8F00221A608CF310880120AA
:100E60004042F2E73C20000010B543890A14934247
:100E70001ADD53009B184269DB00D3180469EFF3B5
:100E8000108C72B62268002AFCD0BFF35F8F5A889C
:100E9000090494B2090C8A4208D00369BFF35F8F3A
:100EA00000221A608CF31088002010BD80221202EC
:100EB00014435C80012302698371BFF35F8F0021BB
:100EC00011608CF31088044902788C469340C26804
:100ED000012062441360E8E73C200000407870473E
:100EE000F0B504000D0006267642F717C6463619FF
:100EF0006F4100B582B08F4214D811D000F0FAF8DB
:100F000032003B00121A8B41002B17DC002B47D01C
:100F10002000290000F0F8F802B080BCB846F0BD0F
:100F20008642EBD90022002316001F0000F0E2F8F1
:100F300032003B00121A8B41002BE7DD00F0DAF89B
:100F400032003B00121A8B41002B0ADB0023019375
:100F5000154B3200009315483B00FFF72DFF00288A
:100F6000D6DB00239C46B046114A124E736A9F425C
:100F700004D8B16A8845CBD99F42C9D11168EFF333
:100F8000108072B60B68002BFCD0BFF35F8F136824
:100F9000BFF35F8F6146196080F3108820BFE5E7DB
:100FA000002AB5D0CAE7C046D5080010E40F0020DB
:100FB000B02000200040054070B5060000F09AF80F
:100FC000FA2204000D00002330000021920000F0FE
:100FD00013FC8023001969411B06994202D30120AA
:100FE00002494042FFF77CFF70BDC046FFFFFF7F14
:100FF000F0B5CE46474680B504000D0083B0EFF350
:1010000005878846002F3ED12E4EA1463378F068E2
:1010100004339B00816A1B58601A5B1A98420ED3F6
:1010200020BF294900204B6AAB4203D38A6A0130B2
:10103000944231D803B0C0BCB946B046F0BD00F010
:1010400059F822002B00121A8B41002B2FDB1F4B6B
:101050002200009330002B000197FFF7ADFE011E28
:1010600025DD194B5A6AAA421BD220BF3000FFF778
:10107000FBFE154A0020536A4345DBD3926A0130D8
:101080009145D7D908E0104900204B6AAB42D1D333
:101090008A6A0130A242CDD25B1B5A1E9341D8B25C
:1010A000C8E79B6A9C42E1D9AA42DFD1DDE7064A44
:1010B0000020536A4345BDD3926A01209145B9D9B6
:1010C000EAE7C046E40F002000400540D5080010C4
:1010D00010B5024A0248FFF729F910BD304500104B
:1010E000081B00200300416A0A00986A596A8A4274
:1010F000FAD17047034B596A0A00986A596A9142BB
:10110000FAD1704700400540064A536A9942FCD81C
:1011100007D1044B02E05A6A914202D19A6A824294
:10112000F9D3704700400540F8B5DE464E465746B5
:101130004546E0B58B4605000A991800160000F0F8
:10114000C9FA0A9B6C001F02324B64199C46A4002A
:101150006444636881469F4200D967602B1FDBB2FD
:101160009846012B30D9C02380229B01E31812013D
:101170001A60294BAD0059599A4600291BD17301B9
:10118000E026226853401E40802342465B01E3185C
:101190001E60012A30D9802380229B01E3181201AE
:1011A0001A6053464A4667605A51F0BCBB46B24685
:1011B000A946A046F8BD586900F08CFA01304300FA
:1011C0001B18033BFDD2DAE75B46012BCBD1C023D2
:1011D00003229B01E3181A60023AA3681A42FCD06A
:1011E0007301E0262268AD0053401E4080230A4A66
:1011F0005B019246E3181E605A4621685140032263
:101200000A401A6001225B469A40A3681A42FCD049
:10121000C1E7C046008000400C1B0020F0B54646E8
:101220004F46D646C0B51F00344B44009C46241898
:10123000A4006444636888461600FF2B02D880230C
:101240005B006360031FDBB29A46012B30D9C023D9
:1012500080229B01E31812011A60294B850059591D
:10126000994600291BD17301E026226853401E4095
:10127000802352465B01E3181E60012A30D9802387
:1012800080229B01E31812011A6080235B006360D7
:101290004B465F51E0BCBA46B146A846F0BD58691E
:1012A00000F018FA013043001B18033BFDD2DAE7C7
:1012B0004346012BCBD1C02303229B01E3181A60C4
:1012C000023AA3681A42FCD07301E0262268850026
:1012D00053401E4080230A4A5B019146E3181E607A
:1012E00042462168514003220A401A6001234246C7
:1012F0009340A2681342FCD0C1E7C0460080004082
:101300000C1B0020014B8000C05870470C1B0020B4
:10131000F8B5040021481E0017000D0000F0DAF9AE
:101320000100380000F0D6F9069B36041B031E436B
:101330002368002B20DB1A4B1A49E3185A1E9341ED
:101340008022920194465B421B0B174A1B036344A5
:101350001360164A13601F000A689743FBD1144BB1
:101360002560E2182123A06013602368002BFCDABB
:101370000823E6601360F8BD3F2322681340AB42A8
:10138000D9D1A3681B051B0D8342D4D1EE22E3689B
:10139000D2021340B342CED1EDE7C046001BB700E6
:1013A0000040FDBF08C0004000E0004000F00040E9
:1013B0000430000010B580241C4BE4051C6000289C
:1013C0001AD001231A4C18431A4BDC611A4C4440C2
:1013D0001C62596298628021144BC9051960174834
:1013E00017490860E021C9041960002A07D180224A
:1013F000144B12061A6010BD0E4BD861EBE7530177
:101400009B1A9B009A18802312015B049A4209D20E
:1014100013000D490B60074B5A608022094BD2051F
:101420001A60E8E7094B1A00F3E7C04600B0054030
:10143000D3C007B0008005402D3FF84FFCFF0100EE
:101440000820014000A005406C1F0020FFFFFF00A6
:101450008023024A9B000B43D36270470080054003
:10146000142310B50100188804331B88984710BD59
:10147000162310B50100188802331B88984710BD49
:10148000F8B54746CE4680B50F1E19D014239946AD
:10149000043304000025012698464B46188843462D
:1014A00021681B88984701C4431E9841013540427A
:1014B0000640AF42F1D13000C0BCB946B046F8BDDD
:1014C0000126F8E7142370B50400188804331B883C
:1014D0000D000549984703000020002C01DB013076
:1014E000A04029009847C04655420000AA23064A5A
:1014F0001B0113602F230549D360054B1960536806
:10150000002BFCDA7047C0460040024000B0FA00F1
:10151000006002407047C04610B50148FEF7EEFE7D
:101520005445001070B5074D074EB54209D200244E
:10153000013E761BB60808CD984723000134B3421C
:10154000F9D170BD90440010CC440010054B064A00
:1015500006491A60064A074B1A6010000B68984348
:10156000FBD1704700E00040BFCDFBFE08C000404B
:10157000FE7F3C0000F00040044BDB6C002B03D1ED
:101580008022034BD2021A607047C04600001150FF
:101590004C201150044A054B1A60054A1368DB01C0
:1015A0008033FBD17047C046FFFFFF0100F00040D1
:1015B00008C000404022034B9A675A671A67DA66F0
:1015C0007047C04600F0014010B5FEF73DFF10BD6A
:1015D00070B5044D044CA968C022200000F068F9E1
:1015E000AC6070BD00ED00E000000020002310B5ED
:1015F000294C82B0A367FFF779FF0122274B1A60BD
:10160000636C012BFCD10322254B1A60224A936B99
:10161000012BFCD1013300930121224A22480433DB
:10162000FFF776FE052301210093204A2048FFF7AB
:101630006FFE0022022104201E4BFFF7EFFD002267
:10164000012105201C4BFFF7E9FD002200210720A6
:101650001A4BFFF7E3FD002200210820174BFFF78C
:10166000DDFD8023DB000093002200210920134BC5
:10167000FFF75AFD0022104B00210620FFF7CEFD98
:101680000420FFF73FFE0E4900F024F8010000207F
:10169000FFF7DEFE02B010BD008000403CB000400D
:1016A00030B00040002F685900800240008C86470F
:1016B00000C00240001BB70040597307006CDC02F9
:1016C00040420F0001480421014B18470010002040
:1016D00081140010114A936F9B0813D21066516653
:1016E000002905D0FFE7FFE7FFE7516F106F704754
:1016F00004B5002801D00020C04302F081FE002183
:1017000004BDC046F0B5146E556E576F166FFFF7E7
:10171000E5FF1466556657671667F0BD000000D0F8
:1017200010B50148FEF7EAFD60450010132370B5BF
:101730001D78012D19D014DD1D48FFF799FE060014
:101740001C48FFF795FE1C4C80223100200000F061
:10175000AFF8022D06D01948FFF782FE184B18602B
:1017600070BD154C174BA364F5E7174B124C236063
:101770006360A360E36023616361A361E36123624B
:101780006362A362E36223636363A363E36323642B
:101790006364A364E36423656365A365E36523660B
:1017A0006366A366E36623676367A367E367D9E7B6
:1017B0005344000053460000E81100204C33000061
:1017C000AC1F0020CD1700102117001007B5604690
:1017D00001880A0A0230DF2AFAD1C9B2820804D38A
:1017E000028840880004104300E00068014A50501D
:1017F000039007BDE811002051434343C9188C46AC
:10180000110C83B24B4310B4040C614392B280B20A
:10181000504362431C041B0C001910BC59411304B3
:10182000120CC018514161447047000010B50148C6
:10183000FEF764FDA8450010132310B510481C786E
:10184000FFF716FE0100012C0AD003DD80220D48AF
:1018500000F02EF80C48FFF703FE0C4B186010BD8B
:10186000084C5422200000F023F82200084980325E
:101870002368002B00D1216004349442F8D1E9E7B9
:1018800053460000B01F00204C330000AC1F002066
:101890002D18001001480421014B1847101000209A
:1018A00081140010014B1B68184700001010002025
:1018B000014B5B68184700001010002010B500288D
:1018C00000D110BD00F024F9FBE7C04610B5094A6D
:1018D0000300146884B0002C08D00122009106484F
:1018E000524203A9A047012004B010BD00F05CF9EA
:1018F0000020F9E7681F0020BD18001000BEFDE7BA
:1019000010B5FFF7FBFFC04670B5FFF70BFE074DA4
:10191000074EB54209D20024013E761BB60808CD19
:10192000984723000134B342F9D170BDCC44001074
:10193000D4440010030010B5080011001B6898473C
:1019400010BDC046F0B5C64600B5437D07000D008A
:101950001600002B38D0002A2EDD00216A1E90468A
:101960006A5C037D4C1C00200A2A0CD0A64216D0CB
:1019700043461B5D21000D3B5A4253416A5CDBB27A
:101980004C1C0A2AF2D1002BF0D1884217DB02212D
:1019900010483B689847A64207D02000E8E78642F7
:1019A00003DD311A3B6828189847AD19013D2B78A3
:1019B0000D3B5A4253413B7580BCB846F0BD091AF5
:1019C0003B6828189847E2E7036811002800984709
:1019D000F2E7C046B4460010F0B5DE4657464E4624
:1019E0004546E0B585B017001C0006000D00FFF766
:1019F00081FB0023314A12184B41802109068B429A
:101A000002D301222E4B52422E4908008A4602F090
:101A100017FD01906B1C03D1300002F0AFFC0500F4
:101A2000002C26D0284B9846284B1C68002C15D03B
:101A3000002F21D1264F02E02469002C0ED023680C
:101A4000002BF9D03B68002B01D09C42F4D1200040
:101A50002A003100C0472469002CF0D1019B002BE3
:101A600028D1280005B0F0BCBB46B246A946A04626
:101A7000F0BD184B9846D7E7154B994602ABDF1DD2
:101A80000A239B4602E02469002CE7D02368002B40
:101A9000F9D04B461B68002B01D0A342F3D12A009A
:101AA00031002000C0475B460122390020003B7016
:101AB000C047E8E7504602F09BFCD2E740420F00E7
:101AC000FFFFFF7F58100020451900105C1B00200D
:101AD000641B0020351900100A4A1368002B05D139
:101AE0000CE01A001B691032002B07D09842F8D185
:101AF000002902D103691360016170470029FCD0FD
:101B00001060FAE75C1B002010B500F08DFA10BDE4
:101B1000F0B5CE46474680B583B06B460600DD1D66
:101B20002870FFF7E7FA00231A4A12184B41802168
:101B300009068B4202D30122174B52421749080073
:101B4000884602F07DFC164B81461C68002C14D0A0
:101B5000144F02E02469002C0FD02368002BF9D029
:101B60003B68002B01D09C42F4D1200001222900C7
:101B7000FFF7E8FE2469002CEFD14B46002B05D17E
:101B8000300003B0C0BCB946B046F0BD404602F0DC
:101B90002FFCF5E740420F00FFFFFF7F58100020A9
:101BA0005C1B0020641B002070B5040002F0E6FB03
:101BB00001230100050001222000FFF70DFF084B63
:101BC0001C68002C06D06368002B05D09847246958
:101BD000002CF8D1280070BD2469002CF3D1F9E75E
:101BE0005C1B00207047C0460022014B1A707047F2
:101BF000D22000204B790020FF2B0BD18B79002BBA
:101C000008D1CB79012B05D1082A03D9024B8A7858
:101C100009301A707047C046D2200020012070475A
:101C200010B5012901D0012010BD13495379107955
:101C300009781B02034300209942F5D15378012B08
:101C400008D0022BF0D1002064220021FFF7B2FB64
:101C50000120E9E7D37891781B021943DB0507D50A
:101C60004A0A100001231A407E331940FFF72AFC6C
:101C700001204A0A4042F5E7D22000200048704780
:101C80008047001070B5050014000120012909D11A
:101C900053780020012B05D1637912791B0213437D
:101CA000072B00D070BD21002800024A9F3301F0AD
:101CB00049FAF7E7D846001001230370004870473F
:101CC000B84600104B780A781B0213438A7810B587
:101CD00012041A43CB781B0613439622D200934278
:101CE00000D010BD0022012011004042FFF7EAFBA6
:101CF000024B1860024B19607047C046FC1A002066
:101D0000001B002010B5024B1878FEF7DBFB10BD5E
:101D1000D3200020154B70B51A68002A22D0EFF3AB
:101D2000108172B610680028FCD0BFF35F8F0020CE
:101D30000F4A596010701B68BFF35F8F186081F302
:101D40001088002400250B4E3078FEF7AFFB0028EA
:101D500004D1002400252900200070BD3078FEF752
:101D6000B1FBF8E7FA240025A400ECE78C1F002063
:101D7000D4200020D320002070B5040000200E00E5
:101D800001F0F8FA002836D0002001F00BFB002803
:101D900031D0FFF7AFF90023184A12184B418021C8
:101DA00009068B4216D2164D280002F049FB002886
:101DB00021D0002001F0DEFA00280FD101200021FF
:101DC000404200F0F3FC03246442280002F010FBC0
:101DD000200070BD01220B4B5242E4E7002001F0CD
:101DE000E1FA0028EAD021003200002001F0E6FAF2
:101DF000041EEAD1E7E703246442E9E740420F000A
:101E0000B4200020FFFFFF7F10B5FFF773F9002318
:101E10000E4A12184B41802109068B4202D301223F
:101E20000B4B52420B4C200002F00AFB00280CD056
:101E300001200021404200F0B9FC002001F00AFB23
:101E40000028F5D1200002F0D3FA10BD40420F0067
:101E5000FFFFFF7FB4200020F8B5DE46574680B56F
:101E600005000C00FFF746F90023374A12184B41D2
:101E7000802109068B4202D30122344B524234495D
:101E800008008A4602F0DCFA002803D1C0BCBB4639
:101E9000B246F8BD002001F06DFA00284AD00026B5
:101EA000002C43DD2B4B9B4614E0A919002001F0C8
:101EB0000DFB070001200021404200F077FC0020CC
:101EC00001F0C8FAFFF716F9224BF61918605960AD
:101ED000B4422BDD002001F019FBA71B0200B84221
:101EE00000DD3A00002AE0D101200021404200F04C
:101EF0005DFC002001F0AEFA002001F03BFA002862
:101F000014D0002001F002FB0028E1D1FFF7F2F825
:101F10005B460F001A685B68002184460E48121861
:101F20004B419F4202D8D3D19445D1D9504602F0BB
:101F30005FFAABE700200021064B1860596050465D
:101F400002F056FAA2E7C04640420F00FFFFFF7FB3
:101F5000B4200020E011002020A1070030B52B4C58
:101F600085B00021200002F053FA00281CD1284B34
:101F70001A68002A16D0EFF3108172B61068002894
:101F8000FCD0BFF35F8F01242248596002781B68A0
:101F9000D2B20470BFF35F8F0020186081F3108805
:101FA000002A17D005B030BD01200021404200F0CA
:101FB000FDFB002001F0F6F90500200002F018FA00
:101FC000002DEFD0144B1B68002BEBD0134A106888
:101FD0009847E7E7FEF782FE0400FFF78BF8FA2246
:101FE0000023920012184B41802109068B4202D334
:101FF00001220B4B5242012102910021019109491A
:1020000020000091FEF76EFECCE7C046B420002011
:102010008C1F0020D4200020FC1A0020001B002070
:10202000FFFFFF7F151D0010D02310B51B0684B0E5
:102030001C68FEF753FEFEF751FFA04202D00020BD
:1020400004B010BD294B1B7801F06AFD28480368D5
:10205000002B47D00120FEF7D1FBFF23254C26495A
:1020600020701840FEF74CFA20780121FEF70CFA98
:102070000520FEF72FFA002826D1082200211F484C
:10208000FFF710FCFEF72AFE0400FFF733F8FA22F0
:102090000023920012184B41802109068B4202D383
:1020A0000122174B52420121029100210191154951
:1020B00020000091FEF716FE0028C0DB1248012127
:1020C000FFF70AFD0120BBE70120FEF7ABF90B4B40
:1020D00001001800FEF7F4FB002205200B49FEF773
:1020E00039FAEBE7FEF7D0FBB4E7C04638490010F9
:1020F000B4200020D32000205D1F00108C1F002082
:10210000FFFFFF7F151D001020100020051D00108F
:10211000004870471C48001000487047C84700102E
:1021200010B5040017480378002B20D0002C06D1EE
:10213000154B16484380063BFF3B038010BD052C22
:1021400019D8134BA400E05812490123013804E0C8
:1021500001330A800231142B0FD0C25C002AF7D160
:10216000C022DBB25B00920008481343E5E711216F
:1021700000F01AF8DAE70020E0E7CA2303489B00E2
:10218000DBE7C046BC20002009040000341B00200F
:10219000B0470010361B002010B5024800F0D8F8F8
:1021A00010BDC046A41F002030B54B1E012900D130
:1021B000A7E0664A11780D092C0030349F2900D918
:1021C000A2E00470012B00D1BEE00F211478214061
:1021D0000C003034092900D998E04470022B00D15A
:1021E000B2E054782509290030319F2C00D990E0C5
:1021F0008170032B00D1A7E00F2121400C00303467
:10220000092900D987E0C470042B00D19CE09478A0
:102210002509290030319F2C00D97FE00171052B61
:1022200000D191E00F2121400C003034092900D960
:1022300076E04471062B00D186E0D4782509290088
:1022400030319F2C00D96EE08171072B00D17BE0EB
:102250000F2121400C003034092966D8C471082BA5
:1022600000D171E014792509290030319F2C5FD805
:102270000172092B68D00F2121400C00303409294C
:1022800058D844720A2B5FD054792509290030317F
:102290009F2C52D881720B2B56D00F2121400C005D
:1022A000303409294BD8C4720C2B4DD094792509B0
:1022B000290030319F2C00D9073101730D2B43D0F9
:1022C0000F2121400C003034092901D937310C008D
:1022D00044730E2B38D0D1790C09220030329F295B
:1022E00000D9073282730F2B2ED00F220A40110023
:1022F0003731092A01D830321100C173102B23D095
:1023000010300023037030BD07345AE737310C001A
:1023100063E707316CE737310C0074E707317DE77D
:1023200037310C0085E707318EE737310C0095E730
:1023300007319DE737310C00A3E70731AAE73731B2
:102340000C00C4720C2BB1D1C018DAE7A41F002016
:1023500010B588B004000D2200216846FFF7A2FAEC
:102360000D22002104A8FFF79DFA4B236A46684618
:10237000137004A90D2202F033F815210822200061
:102380006944FFF795FA08B010BDC046F8B500F0F3
:102390003BF90C23184DFF22AB6705201749FEF7C8
:1023A000D9F8174C402200212000FFF77BFA402784
:1023B000002301262121134A66702783A26013603F
:1023C00063545F316184453963540F4A0F49636038
:1023D000E2602787A1620B606362E26202F028F884
:1023E00080239B052E64EB649023094AEA508022E7
:1023F000084B5202DA64F8BD00001150A10400201D
:10240000681B002084001050000110508000105004
:1024100010D001000020115010B501210520FEF759
:1024200033F810BD10B500220021024800F00CF96D
:1024300010BDC046881B0020044B1970002904D031
:1024400080219023024A8902D1507047CE2000207B
:10245000002011500B785B0602D14B78052B00D081
:1024600070478A78014B1A60FAE7C04600001150A5
:10247000F0B5C64600B5CC7888780A794B797F21CB
:10248000A40701401B02C50913434F00A20F14000B
:10249000324E7A195201B218907001206840507083
:1024A00000205B055B0DD0701383D4768046CA0094
:1024B000012D33D02A488446880162448446B444BE
:1024C0006046826040461060002933D0254AC9002A
:1024D00090466246414451603F223F339343022C71
:1024E00000D15B0020487A1901685201B218D1600E
:1024F0001E4ACB18036051405A40802388465B0136
:102500009A4228D84346A4061C4380237F197F01A2
:10251000F61972681B062343136011E014488446C1
:10252000880162448446B44460468262404610603A
:10253000002909D100236D0175196B600D4BEB600B
:10254000012080BCB846F0BD084AC90090466246EA
:1025500041445162C0E7FEF7DFFFD3E7681B00206C
:102560008400105004001050701F00200000105014
:10257000800010500001105010B501F059FF10BD3F
:1025800010B57F200C0020404000E4091100001924
:102590001A00034B4001C01800F056F8012010BD8E
:1025A000681B00207F23180010B50840CA090B42A1
:1025B00003D107497D3B9B1A8B664000801880221F
:1025C000044B40010021C018120101F051FF10BD61
:1025D00000201150681B00207F22130010B50B4013
:1025E0000A4200D110BDC9095B005B1804485B01B9
:1025F000C018002300220349C37001F039FFF1E73E
:10260000681B0020FFF7FFFF80220A4B520410B521
:102610001A60094B09491A6010000B689843FBD1F6
:102620008022002152010648FFF73CF90922054BA0
:102630005A6710BD00E0004000F0004008C00040B4
:102640000000105000001150002310B5C382013368
:10265000828283760161040001F002FF002804D029
:1026600080219023074A8902D150200001F008FF01
:10267000002802D00123237710BD200001F0E8FEDE
:10268000FAE7C046002011507047C0467047C04668
:1026900000207047002070477047C0467047C04612
:1026A0007047C0467047C046024B5878431E984159
:1026B000C0B2704714160020024B18784007C00FB4
:1026C0007047C04614160020F8B54746CE4680B580
:1026D0002B4F06003B78FF2B04D00120C0BCB9462D
:1026E000B046F8BD002154222648FFF7DBF800224F
:1026F000254C264B20001A70FEF7C6F8244B1C60B0
:10270000244C2000143CFEF7CDF8200001F0F2FD2F
:10271000214B224D1C60224B002B27D02800FFF7B5
:10272000CBFA204B2A7818601F49002489461D499E
:102730000023884610E043461B6862019B18002B6B
:1027400012D05B68002B0FD098472A780134E4B28E
:10275000511C2300A1420BDBA242ECD89B1A5B0167
:102760004B445B68002BEFD10020B7E72A78DBE70A
:1027700030003E70FFF70AFE3000FFF74DFEACE779
:102780005410002014160020CC150020CF2000206B
:10279000681600204C1000206C160020CD20002070
:1027A000B91C0010E8120020D8480010F0B5DE4631
:1027B00057464E464546E0B5C84B91B002931B784C
:1027C000FF2B00D13EE1C64BC64E9B465F46C64B33
:1027D0000DAC0193C54B009335686A69EFF3108126
:1027E00072B61368002BFCD0BFF35F8FA96128007D
:1027F000210001F0ADFB6A69AB69BFF35F8F002177
:10280000116083F31088002800D11BE16378082B46
:10281000E2D89B00FB589F466368002BDCD0A06881
:102820009847D9E77F222179AF4D0A405300EB1832
:102830009846C809804440460123303005799D43BD
:102840000571057903339D430571002A00D100E12C
:102850004346A74A1B7D1278934200D3EFE0A54A76
:102860005B011568ED18002D00D1EBE0A3686279DB
:102870002078AD69A847AFE79F4A1378002B00D1B5
:10288000E0E01378013BDBB213701378002BA3D187
:102890000122954D01212B78042013432B70342302
:1028A000EA5C8A43EA54EA5C8243EA540133EA5C14
:1028B0008A43EA54EA5C8243EA54237800209B4628
:1028C00000F0A0FC602223791A40602A00D1EFE0DA
:1028D000402A00D1F5E0DB06DB0E012B00D113E12D
:1028E000022B00D1C7E0002B00D0E1E0202A00D16C
:1028F0001CE2002A00D0DBE06379092B00D9D7E085
:102900007E4A9B00D3589F46774D2B78DB0700D437
:1029100062E7FFF7C7FE5FE7019BDB78DB0700D4C8
:102920005AE76068FFF7B2FE56E76F4D2B78DB077A
:1029300000D451E728780007C00FFFF7B1FE4BE73E
:1029400023786A4999468B46694B6A4998468A4674
:1029500039001A7847460023B04600254E4689467E
:1029600010E053461B686A019B18002B00D176E0EB
:10297000DB68300098473A780135EDB2511C2B00E6
:102980008D4244DC9542ECD39B1A5B015B44EFE73C
:10299000237858499946564B8A4698463100BB469B
:1029A0004E461A7800250023474689460FE05346D5
:1029B0001B686A019B18002B55D0DB6830009847D4
:1029C0003A780135EDB2511C2B008D4207DC95425F
:1029D000EDD39B1A009A5B0194466344EDE7019D99
:1029E000542200212800FEF75DFF1022FF214448F9
:1029F000FEF758FF28002022FF2114304E465F4684
:102A0000FEF750FF00F0F4FBFFF748FEE4E6364D1A
:102A1000542200212800FEF745FF1022FF21281D27
:102A2000FEF740FF28002022FF21143046464F4683
:102A3000FEF738FF00F0DCFB2379AB70CCE6501CCE
:102A4000984213DA11B0F0BCBB46B246A946A04684
:102A5000F0BDA3686279207800F0E8FBBCE646464A
:102A60004F46214DE6E74E465F46CBE71F4D9B1A8A
:102A70005B015D19FAE67023217A0B4218D1C8096F
:102A800082460F330B405B0098461948EB185344BD
:102A90001B7D00789946834266D216485B01006828
:102AA00081469944002A00D15FE14B46002B68D152
:102AB00020780021FFF776FD80212078FFF772FD56
:102AC0008AE6104800F09EFB012158460EAAFFF747
:102AD000D9F8002800D07FE6EAE7C046541000206D
:102AE000304800106C16002014160020D848001042
:102AF000CD200020E8120020CF20002054480010F4
:102B000018160020851C0010237A0F2BD0D8CF4A2E
:102B1000EB181B791578AB423ED3691C9942C7DB91
:102B20005D1BCB4B6D01ED18686900F06BFB01215B
:102B300058466B690EAA9847002800D04CE66022E0
:102B4000150023791D401A42B2D163790A3B012B4B
:102B5000AED800F057FB63790A2B00D199E15846B3
:102B60000EA900F0D9FA37E6431C4B4500DAF7E02E
:102B70004B461B1A5B019946B5488144002A00D197
:102B8000F3E04B46586900F03DFB4B4601215846A7
:102B90005B690EAA98479CE7AE4A5B011568ED1881
:102BA000002DC1D184E7A37999466B789945D6D099
:102BB0006B78002B00D033E14B466B70002B00D1BB
:102BC0002BE148460138C0B2FFF7A6FA002800D131
:102BD0007EE143780793022B00D079E10122C1798D
:102BE000B1468B11491113400A40302112015B019B
:102BF00013432A78A8468A4313432B7009239A4625
:102C000082445646BA46C37882781B021343C318DF
:102C100005938E4B04938E4B08938E4B09938E4BEA
:102C20000A93059BB34200D855E1737801220B2B20
:102C300003D13378F278F6187378042B00D044E18E
:102C4000059B00279B1B9BB20693049B0B921D7850
:102C5000002303931BE0099A7B011568ED18002DF2
:102C600000D132E1310058462B69069A98478446D4
:102C7000082803D9069A824200D313E1049B013746
:102C80001D78FFB26B1C03979F4200DD1DE1BD4222
:102C9000E1D8039B5D1B089B6D019C466544E1E701
:102CA0006B780CAA02321370584601230EA900F06B
:102CB00049FA91E5E3881A0AD8B20F2A00D9F7E653
:102CC00066499300CB589F460EA800F0A1FA5846DB
:102CD000A179FFF7A7FB02222B7813432B707BE52A
:102CE000E388012B00D0E3E608222B785846934373
:102CF0000EA92B7000F010FA6EE5022029780CABBB
:102D00009A1C8B068908DB0F01400B431380584641
:102D100002230EA900F016FA5EE5E388012B00D02D
:102D2000C6E608222B7813432B7018E7237A0F2B63
:102D300000D9BDE6EB181D79444B1B789D4228D283
:102D4000444B6D011B685D19002D00D1B0E6686928
:102D500000F058FA012158466B690EAA9847B8E668
:102D6000002A00D0A4E600239946627902201300CD
:102D700003928343012B15D0002A00D098E62B0044
:102D80004344534430331B790CAA9B07DB0F0232B8
:102D9000BCE75A1CAA4200DA8AE6ED1A2C4B6D01F8
:102DA000ED18D4E7E388002B12D1029B1878039B1F
:102DB000012B23D0FFF7F6FB43460221EB185344C7
:102DC00030331A790A4301211A711A790A431A71A8
:102DD0004B46002B00D1FFE4586900F013FA4B4634
:102DE00001215B690EAA58469847002000F00AFAB4
:102DF0003523EB5CDB0700D5EEE4B0E6FFF7ECFB38
:102E000043460221EB18534430331A798A431A712E
:102E10001A7903998A431A71DAE7FFF73FFC9EE6B5
:102E200000215846FFF708FB5846FFF7A5FBAB7893
:102E3000074903930491054B064998461A78059172
:102E4000002329001D008A461BE0C046CD2000203B
:102E5000D8480010E8120020281600207C480010F6
:102E6000059B6A011B689B18002B4DD0DB685846F8
:102E7000984743461A780135EDB2511C2B008D421C
:102E80002EDC9542ECD39B1A049A5B019446634472
:102E9000ECE70CAB9A1C584601230EA9157000F004
:102EA00051F999E40B9A012A4FD0002A3CD0002313
:102EB000B07804E00133DBB20F71934234D2C11811
:102EC000C9B241440D79FF2DF4D04E4645465746D0
:102ED00000236B70ECE54E465746FFF7DDFB3EE600
:102EE0005546542200212800FEF7DCFC1022FF2169
:102EF000281DFEF7D7FC28002022FF211430FEF702
:102F0000D1FC039BAB7057E65546FAE7FEF7B6FED9
:102F1000021E00D1CCE5D37891781B020B435846B2
:102F20000EA900F00FF9D4E565463B002A003100F8
:102F30000A9800F07DFEAC46049B039A1B78664419
:102F40000133934200DB6CE6BFE7174B29699942D6
:102F5000ADD1079AABE7FFF79BFB021E00D1A7E5B7
:102F6000584613780EA900F0EDF8B2E52189FFF775
:102F7000D7F8021EF4D19BE5022A0FD0FFF78AFB97
:102F8000021EC8D194E5FFF7C3F8021E00D18FE5F9
:102F9000122358460EA900F0D5F89AE5FFF7BCF8C1
:102FA000021EB8D184E5C04621360010F8B5574658
:102FB0004E46DE4645460C00E0B516001F00002ACE
:102FC0003CD01F4B00259A46702399461D4B9B46CB
:102FD00017E05B462000997800F0ECFD00281FD038
:102FE00021004046FFF744FA002819D0A378DA09F7
:102FF000012A1CD00A9A013513702378E418B542CF
:103000001CDA6378052B0BD1E3789B079B0FBB423F
:1030100006D153464A461B789846A3781A42D8D020
:103020000020F0BCBB46B246A946A046F8BD0B9AAC
:10303000013513702378E418B542E2DB0120F0E794
:103040005410002014160020702270B5094B0C009B
:103050001D788B781A4201D0002070BD064B2000ED
:10306000997800F0A7FD0028F6D021002800FFF78E
:10307000FFF9F2E754100020141600200B007F2007
:1030800010B51840DB0934334000044AC018044B23
:103090001168C01800F04AFD10BDC0466816002037
:1030A000141600200B007F2010B51840DB093433C4
:1030B0004000044AC018044B1168C01800F05EFDBF
:1030C00010BDC046681600201416002070B57F247D
:1030D0000F480C4064000419CD096419303420797C
:1030E000C00701D5002070BD012625790948354368
:1030F00000782571FFF744FA0028F4D101222379E2
:10310000934323712379033293432371EAE7C04643
:10311000141600205410002070B5094C0600082237
:1031200020000D00FEF7C4FB00238021E360A360B4
:103130002B783000994300220023FFF7C7FF70BDB2
:10314000B8150020F8B5CE4647469046264E80B5C5
:103150008146082230000D001F00FEF7A9FB434600
:10316000B3600023F381EC79AB7924021C43231C68
:10317000BC4200D93B1C9FB2B381002C0ED0002F63
:1031800018D04346002B2CD03B1C402F1BD89FB29D
:1031900033787F2B1CD80021144A0FE080212B7834
:1031A0000022994348460023FFF790FFC0BCB94670
:1031B000B046F8BD7F230022317899433B00484652
:1031C000FFF784FFF2E740239FB233787F2BE2D9E9
:1031D000064C3A0041462000FEF76AFB802122009F
:1031E000ECE70020E2E7C046B8150020D415002027
:1031F00010B5142200210248FEF754FB10BDC04652
:10320000B8150020014B18617047C046B815002062
:1032100010B5054C010008222000FEF749FB0023F1
:10322000A360E36010BDC046B815002070B5384CEF
:103230001D0023780600DA09C9098A4210D000204F
:10324000002D00D070BD21003000FFF703F9236985
:10325000002B03D022000321300098470120F1E722
:10326000A0687F2B05D8002834D02A002949FEF712
:103270001FFBE289A1685219E38892B24919E281E1
:10328000A160934214D03F2D12D9A389981A051C2E
:1032900080B240282AD82078ADB27F2828D80021D3
:1032A0009A4232D01B4A2B003000FFF70FFFC9E7CC
:1032B0002369002B05D02200022130009847002806
:1032C0000AD0802123780022994330000023FFF7A1
:1032D000FDFEB7E70020B5E700213000FFF762F9F7
:1032E00030008021FFF75EF90120ABE74025D2E7EF
:1032F0009A4207D0074C2A002000FEF7D9FA802115
:103300002200D0E780210022CDE70022CBE7C04693
:10331000B8150020D415002070B50400FFF7C4F9DB
:10332000002800D170BDFFF7C7F90028FAD1E37873
:10333000002BF7D025001035280000F0F3FD3F28C2
:10334000F0D90020E178FFF799FE0028EAD02800A4
:1033500000F0E8FD3F2808D992239B00E218E178AD
:1033600040230020FFF7B2FEDCE7E1780020FFF702
:1033700099FED7E710B50400FFF796F9002801D1B0
:10338000002010BDFFF798F90028F9D1B222920071
:103390006243034B01309B181B791840F1E7C0468C
:1033A000F0120020B2239B00434310B502481818C6
:1033B00000F09AFD10BDC04600130020F0B5B22603
:1033C000B60046433500C6468023204F1035040022
:1033D00000B57D195B029A4200D31D4A280092B2C3
:1033E00000F004FE8046FFF75FF9002803D1404655
:1033F00080BCB846F0BDFFF75FF90028F7D1B223D3
:103400009B005C433C19E378002BF0D0280000F0CF
:1034100089FD3F28EBD90020E178FFF72FFE002837
:10342000E5D0280000F07EFD3F280AD992239B00BA
:103430009C4666444023E178BA190020FFF746FE17
:10344000D5E7E1780020FFF72DFED0E7F01200204D
:10345000FFFF0000F8B50400FFF726F9002801D1AE
:103460000020F8BDFFF728F90028F9D1B2239B000E
:103470005C432500144E2435AD19280000F034FDBE
:103480000028EDD037190020B978FFF7F7FD0028A4
:10349000E6D0A2239B009C466444A4192100280086
:1034A000402200F0A3FDB978051E08D003002200D9
:1034B0000020FFF70BFE0028D2D02800D1E7002023
:1034C000FFF7F0FDCCE7C046F012002070B5B22443
:1034D000A40044430B4B0500E41880235B029A428E
:1034E00000D3094A200092B200F048FE06002000F6
:1034F00000F0FAFC3F2801D8300070BD2800FFF72B
:10350000A9FFF9E714130020FFFF0000B2239B007E
:10351000434310B50248181800F004FD10BDC04622
:1035200014130020B222F0B500251B4C83B00021FB
:1035300020009200FEF7B6F9184B80261D70FF237D
:103540006371E1235B02A360210008232000760061
:10355000A373320038310095073B103000F08EFC29
:1035600021000123200039313200FF310093243043
:1035700000F084FC8E239B00E7183800FDF784F9E7
:1035800090239B00E6183000FDF77EF9E561276285
:103590002663656303B0F0BDF0120020EC1200203A
:1035A0000B4B196B00290AD01A6A002A0DD0002291
:1035B0001A621A63DA6100225A63012070471A6A9C
:1035C000002AFAD0D9611962F7E71A63F3E7C04617
:1035D000F012002070B50F4C052200212000FEF7EC
:1035E00061F90D4D2B78DA0707D50C4C9B070CD5EC
:1035F0000121200000F09EFE70BD2000103000F080
:1036000079FE2B78054C9B07F2D4200000F072FE67
:10361000EEE7C046F0120020EC1200201413002048
:10362000F0B5C64600B54B79060082B0022B02D138
:103630008B79022B05D00025280002B080BCB8464B
:10364000F0BD214FBB78002BF5D18B7809253B705D
:103650000C780C196378242B0BD1082A02D821E0AE
:10366000AA421FD32378E4185D196378ADB2242BE6
:10367000F6D0052B1AD0042B14D163790A2B11D163
:10368000237821009846114B0222019301330093C5
:10369000300002234144FFF789FC0028CBD00E35CF
:1036A0004544ADB23800FFF737FEC5E721003000D2
:1036B000FFF7CAFC0028BED0A3787B7023785D1981
:1036C000E4186378ADB2D6E7F0120020F2120020C1
:1036D000F8B5602314001278050013400020202B59
:1036E00012D12F4A6379277916781B023B439E42F9
:1036F0000AD16378222B1AD007D8202B3CD0212B5B
:1037000002D1012930D00120F8BD232BFCD10129A1
:1037100040D00329F7D1234B002BF4D0E178A378D4
:1037200009020020194300E000BF0120ECE7012955
:1037300030D00329E7D101252E00A378E47802399F
:1037400024021C431471264024321000714000F002
:10375000F1FD154B002BD6D06208002031002A4025
:1037600000E000BF0120CFE70723210028000F4A17
:10377000FFF7E8FC0120C7E70129F5D00329C2D1F2
:103780000B4B002BBFD0083200201100FEF79AFA35
:103790000120B9E721002800FFF7BEFC0120B3E7B4
:1037A000F01200200000000000000000F8120020CD
:1037B000C51C0010F0B54F464646D646374DC0B53D
:1037C000EA781F0080460C00AB788A423BD08B42DF
:1037D00010D00020E0BCBA46B146A846F0BD304B40
:1037E000002B04D02F4800F095FB002853D0280070
:1037F000FFF792FDAB78A34201D00120EAE72A4B04
:10380000002B02D0002000E000BF0020FFF722FEC6
:103810000028F2D1254C200000F066FB0028ECD1F6
:10382000002FEAD0BF06E8D1243C4046A178FFF73C
:1038300025FC0028E1D0002300224046A178FFF7B4
:1038400045FC0120C6E792239B00EE1810239A4600
:10385000AA4431005046BAB200F090FC144B002B41
:10386000BDD06B79FF2BBAD0002FB8D0F21991469A
:1038700003E00136B145B2D06B7932789A42F8D183
:10388000504600F047FB0028F3D15346103B5979CE
:1038900000E000BFEDE700E000BFA8E7F012002065
:1038A000000000000013002000000000141300209E
:1038B00000000000B32270B5144C84B00021200039
:1038C0009200FDF7EFFF231D0293230020008025C7
:1038D0004026CD336D00FF33A93000930022002332
:1038E000002103960195FF3000F0BCF92300200071
:1038F0004433A8340293012200230021039601954A
:103900000094843000F0AEF904B070BD3017002090
:1039100010B5054C200000F0DBF920002538FF38F9
:1039200000F0D6F9012010BDD818002010B5064CC3
:1039300000232000B130FF30237000F0DBFC2000BA
:103940008C3000F0D7FC10BD30170020F0B5574682
:103950004546DE464E46E0B54B7980460F0083B0C3
:10396000FF2B28D1454B0C789946AA234946FF33B3
:10397000CB5C002B1FD18533CE5C002E1BD1BB78D6
:103980003C190B703B79002B12D0D8235B004B44C1
:103990009A468C234B449B46A5186378052B05D18A
:1039A00011E02378E4186378052B0CD0A542F8D8F1
:1039B000E01B80B200E0002003B0F0BCBB46B24682
:1039C000A946A046F0BDA542F2D921004046FFF726
:1039D0003BFB0028EFD0A3780136F6B2DB09012BC0
:1039E00029D0504600F086FCAA234946A278FF332E
:1039F000CA54637922791B021343214A5B0594461A
:103A00005B0DD42163445A4253414A460220490087
:103A1000525C5B00824313434A465354514640462E
:103A2000083900F0BDF90028C5D02378E4183B79A7
:103A3000B342B2D8BCE7584600F05CFC5A46852336
:103A4000A1788C3AD154637921791B020B430C493C
:103A50005B058C465B0D634459424B4184215B00FE
:103A600001930223505C9843019B034353545946EE
:103A70000020083900F062F9D7E7C046301700206F
:103A800000FEFFFFF8B5AA2506001F48FF35455D7B
:103A90001F008D4215D08523C35C00208B420FD1BF
:103AA0001A4B002B04D039040020090C00E000BFA1
:103AB000174C3000210000F041F9002814D00120FB
:103AC000F8BDDA235B00C35A002B14D1114B002B35
:103AD00004D000201049BAB200E000BF30000F4906
:103AE00000F05EF90120EBE73A002100300000F021
:103AF000F1F80120E4E7D6235B00C158B130BAB237
:103B0000FF3000F03BFBE1E7301700200000000031
:103B1000B41700200000000034170020D81800203F
:103B200010B50020FEF7D0FD10BDC046037870B57B
:103B3000DB0704000E00DD0F002B17D103785B07B5
:103B400001D5280070BD01213000494200F068FC19
:103B50002378DB07DD0F002B0AD123785B0708D41D
:103B60000422237801251343237002E00025E8E7AF
:103B70000025300000F03CFCE3E7C04670B50C00C7
:103B8000012106004942200000F04AFC33785B071F
:103B9000DD0F002B04DB200000F02AFC280070BDA4
:103BA0003378DB0704D40422337893433370F2E78D
:103BB0000025F0E7437902791B021343C2785B05C5
:103BC00092075B0D920F022A1DD0032A0CD0002011
:103BD000012A08D102394A425141124A94466144AD
:103BE00099424041C0B2704702394A1E91410E4A83
:103BF000494211408022D2009446002061449942FB
:103C00004041C0B2EFE7022905D0002040229A428D
:103C10004041C0B2E7E7054A981843425841C0B254
:103C2000E1E7C046FF03000040FCFFFF00FEFFFF8E
:103C30008A1870B5914207D27F264C78052C04D0A3
:103C40000C7809198A42F8D870BD34008D782C4060
:103C500064000419ED0963550C7809198A42ECD8FF
:103C6000F2E7C046F0B5C64600B582B0150008AA16
:103C700040CA040017880BAA1288012090460A0047
:103C80002178024081432000114321703A000093C3
:103C900031000123083000F0F1F8002E01D0002F90
:103CA00008D10A9B012063604346638002B080BC58
:103CB000B846F0BD26001C363000FCF7E5FD0023B9
:103CC000002D01D0330000266361A661E9E7C046FC
:103CD00001207047F8B502240B7807001C406342AE
:103CE0005C41144B64421C40134B08009C46083056
:103CF0000D001600644400F0F7F8002807D1002EEC
:103D000005D0344203D101242B781C4201D000207D
:103D1000F8BD38006978FFF7B1F90028F7D02B78A3
:103D20001C42F4D10023002238006978FFF7CEF955
:103D3000EEE7C04640FEFFFFFF010000F8B50D00B2
:103D40000835060028000C0000F0CEF8002803D04B
:103D5000012723781F4201D00020F8BD3000617890
:103D6000FFF78CF90028F7D028006288616800F01E
:103D70003DF92378051E0BD01F42EDD10300626888
:103D800030006178FFF7A2F90028E5D02800E4E7C9
:103D90001F42E1D130006178FFF784F9DCE7C046CB
:103DA000F8B5CE46474680B58A8905000C000B78E9
:103DB000002A07D101261E423FD00020C0BCB946D0
:103DC000B046F8BD9B0734D5FE2380261B029946DA
:103DD000B60027000837380000F0A4F88642ECD877
:103DE0000122237890461A42E7D128006178FFF734
:103DF00045F90028E1D0380000F094F8864231D827
:103E00004146237862881942D7D14B461840061C98
:103E1000904200D9161CB6B200226178002E00D064
:103E2000626833002800FFF751F90028C5D0300040
:103E3000C4E7114B40269946CBE74978FFF71EF9B6
:103E40000028BAD0227863881642B6D10022617861
:103E5000002B00D062682800FFF738F90028ACD0AA
:103E60006088ABE7424623781A42A6D128006178E1
:103E7000FFF718F9A1E7C046C0FF0000F0B5C6463D
:103E800000B5040006A805788020884617001E00AB
:103E90000002824226D8E068002803D0012149426E
:103EA00000F0BEFA2069002803D00121494200F049
:103EB000B7FA4346236073045B0CED031D430023F4
:103EC000E0686381A780E5802381002801D000F0AD
:103ED0008FFA2069002801D000F08AFA012080BC06
:103EE000B846F0BD0020FAE710B504894189828800
:103EF000A3B288B28C4207D31B1A9BB2101C9A4201
:103F000000D9181C80B210BD5100091A5B189BB271
:103F1000F4E7C04603894089181A43425841C0B2A9
:103F20007047C04610B5048941898288A3B288B21F
:103F30008C4207D31B1A9BB200209A4201D9D21A95
:103F400090B210BD5100091A5B189BB2F4E7C0464D
:103F500070B5040000690E00002803D00121494219
:103F600000F05EFA25896089A288A9B283B28542F1
:103F70002CD3CD1AADB2002D2ED0AA4208D2914238
:103F800030D3891A8BB263819A4203D89B1A9BB2B1
:103F90009A42FBD9E28821685204520C5343300004
:103FA000C918FDF785FC63890125591C89B2A288CF
:103FB0008B4213D900215200891A89B2206961818C
:103FC000002801D000F014FA280070BD5500ED1A49
:103FD0004D19ADB2002DD0D1618989B25200914204
:103FE000ECDBE9E789188BB26381CDE7F0B5464693
:103FF0004F46D646C0B5060000698946904600285F
:1040000003D00121494200F00BFA31897289B58849
:104010008BB294B2914254D31F1BBFB2002F4AD02F
:10402000BD4205D2AB4251D25B199CB22F007481C4
:104030004346B8453DD89FB2A54203D8641BA4B2FD
:10404000A542FBD9F28831685204520C9046624373
:104050002B1B9BB2891842469F4225D953439BB2E2
:104060001A0048469A46FDF723FC434648467D1B06
:1040700064195C4331685044A2B2FDF719FC7189A0
:10408000B588CB199BB26A00994216D99B1A9BB28C
:1040900030697381002801D000F0AAF93800E0BC33
:1040A000BA46B146A846F0BD48467A43FDF700FC43
:1040B000E5E73B1CBFE773899BB26A009342E7DBED
:1040C000E4E76F003F1BDF19BFB2A7E75B1B9CB2A1
:1040D000ACE7C046F8B50400C0680E00002803D065
:1040E0000121494200F09CF9258920896189A28833
:1040F000ADB283B28FB2884229D3DB1B9BB29A4206
:1041000009D8E779FF0906D1E068002801D000F05E
:104110006FF93800F8BD95421ED32B009B1A9BB255
:104120009342FBD2E28820685204520C5343310080
:10413000C018FDF7BDFB6B1C9BB2A2889D4218D92D
:10414000002352009B1A9BB201272381DCE7510018
:10415000C91B5B189BB2D2E72B00E288206852048F
:10416000520C53433100C018FDF7A2FB0135A28861
:10417000ABB252009342E7DBE4E7C046F0B55746E6
:104180004546DE464E46E0B5140005000F0083B0FC
:10419000002A75D0C068002803D00121494200F0F0
:1041A0003FF92E89E9796A89AB88B6B292B2C9091A
:1041B00045D1964200D36DE059008A1AB21892B2E6
:1041C000002189469A4234D29A1A111C92B2A24214
:1041D00000D9211C8AB29146EA885204520C9046BA
:1041E0004A46B21892B292464A46D21A92B29346C0
:1041F00034009E4203D3E41AA4B29C42FBD242464E
:10420000624328681B1B9BB2801842464B4554D31F
:104210004B4639005A43FDF74BFBAB885B005645D4
:1042200001D89A4503DB5246D31A9BB29A465346AD
:104230002B81E868002825D000F0DAF822E0E98830
:104240004904490C88469C4227D2964247D3B11A6A
:1042500089B28C465800E11A89B28B466146091929
:10426000814208DBD11889B20E1BB6B28A46B2422F
:104270003BD9361AB6B2A21992B29246A146B7E716
:1042800000239946484603B0F0BCBB46B246A94657
:10429000A046F0BDB21A92B292E700218946002BE7
:1042A000C7D04146E41A4C431600D118002289B207
:1042B0008A46994693463F199AE753439BB21A00A0
:1042C00039005C440193FDF7F3FA414622004A436A
:1042D000019B286892B2F918FDF7EAFA9DE75800A9
:1042E000811A711889B28C46B5E7A146B04200DD4B
:1042F0007EE7BEE710B50400C068002803D00121A6
:10430000494200F08DF82069002803D0012149427C
:1043100000F086F80023E06863812381002801D043
:1043200000F066F82069002801D000F061F8012053
:1043300010BDC04670B50400C0680D00002803D051
:104340000121494200F06CF82069002803D00121C6
:10435000494200F065F87F21E379ED011940E068FA
:104360002943E171002801D000F042F820690028BB
:1043700001D000F03DF8012070BDC04610B58307A4
:104380000AD00300032102E001330B4205D01A7862
:10439000002AF9D1181A10BD030019680C4A0D4CF7
:1043A0008A188A4322420FD15968094A04338A186D
:1043B0008A43224208D15968054A04338A188A433D
:1043C0002242F1D000E001331A78002AFBD1E1E764
:1043D000FFFEFEFE80808080F8B5C0460000000031
:1043E00001B40248844601BC604700BFC9020020F6
:1043F00001B40248844601BC604700BF2D02002082
:1044000001B40248844601BC604700BF110F002080
:1044100001B40248844601BC604700BFC1000020CF
:1044200001B40248844601BC604700BF9D010020E2
:1044300001B40248844601BC604700BF89030020E4
:1044400001B40248844601BC604700BF010100205E
:1044500001B40248844601BC604700BF810C0020C3
:1044600001B40248844601BC604700BFC90B00206C
:1044700001B40248844601BC604700BF310C0020F3
:1044800001B40248844601BC604700BFF10B002024
:104490004D15001079150010C51600109518001064
:1044A0002D17001039180010ED150010951500108B
:1044B000B5150010C915001039080010D1150010ED
:1044C000010C00101515001065040010B102001059
:0444D000992100101E
:1044D40048656C6C6F2C20776F726C64210000004F
:1044E4000A2A2A2A2050414E4943202A2A2A0A000D
:1044F4000A0000004E6F207370696E6C6F636B73FB
:104504002061726520617661696C61626C6500008E
:104514004E6F207573657220495251732061726524
:1045240020617661696C61626C6500004861726447
:104534007761726520616C61726D20256420616C05
:10454400726561647920636C61696D656400000063
:104554004861726420617373657274006D6973736A
:10456400696E6720646F75626C652066756E63742E
:10457400696F6E0052656C6561736500626F6F747C
:10458400325F77323571303830000000302E310020
:10459400322E312E300000007069636F5F770000A7
:1045A40055345431000000004A616E203137203206
:1045B4003032350055534220737464696E202F20C5
:1045C4007374646F75740000526173706265727203
:1045D40079205069000000005069636F00000000FA
:1045E400426F617264204344430000005265736566
:1045F40074000000556E68616E646C6564204952F5
:104604005120307825780A006570202530325820F2
:1046140077617320616C7265616479206176616988
:104624006C61626C6500000043616E277420636FE7
:104634006E74696E75652078666572206F6E206988
:104644006E61637469766520657020253032580088
:1046540006005250D3F075427845001006005250BF
:10466400E182887F80450010060052503ABCA911AF
:104674009045001006005250ABB3605394450010AF
:1046840006005250BBFF3CB69C4500100600525039
:10469400861C0302A4450010060052505422A29D19
:1046A400AC45001005005250DE65F468DC5800107B
:1046B4000D0A000000000000E51B001000000000CF
:1046C400E91B0010F51B0010211C00101D1C00101C
:1046D400000000000A00000000000306A600080015
:1046E400020002009C001400030057494E55534237
:1046F4000000000000000000000080000400010031
:1047040028004400650076006900630065004900E4
:104714006E0074006500720066006100630065004D
:10472400470055004900440000004E007B00620031
:1047340063003700330039003800630031002D0076
:1047440037003300630064002D003400630062000E
:1047540037002D0039003800620038002D00390080
:1047640031003300610038006600630061003700E7
:104774006200660036007D0000000000050F210085
:10478400011C100500DF60DDD88945C74C9CD2654B
:104794009D9E648A9F00000306A60001000000009D
:1047A4000600525053B4F4A1B845001000000000B4
:1047B400CC450010DC450010BC200020E44500106E
:1047C400F045001009025400030100807D080B002D
:1047D4000202020000090400000102020004052490
:1047E400002001052401000104240206052406001A
:1047F400010705810308001009040100020A0000F2
:10480400000705020240000007058202400000097B
:1048140004020000FF00010512011002EF02014032
:104824008A2E0A000001010203010000D8270010AB
:104834004029001090290010182900102A2900107E
:1048440008290010782800102428001018280010C7
:10485400FA2C0010E02C0010B02A00101A2D0010C1
:10486400B02A0010C82C0010B42C0010B02A00107C
:10487400A02C0010A62B0010B02A0010862F0010C8
:10488400782F00106C2F0010B02A0010B02A0010EE
:10489400562F0010782F0010B02A0010B02A0010F4
:1048A400B02A0010B02A0010B02A0010B02A00105C
:1048B400B02A00100C2F0010520D0020520D0020C1
:1048C4009C0D0020BC0D0020000E0020120E0020C4
:1048D400480D00200000000025350010A13500100F
:1048E400D535001021360010D1360010B537001030
:1048F4000000000000000000B5380010113900105D
:104904002D3900104D390010851C0010853A001017
:04491400000000009F
:1049180054460010604600106C460010784600109F
:1049280084460010904600109C460010A8460010CF
:04493800A447001080
:10493C0003000068EFF3108C72B60268002AFCD0FA
:10494C00BFF35F8F04229A56002A04DB002900D0A3
:10495C000A60002004E0D0220120120612681A71AD
:10496C001B68BFF35F8F00221A608CF310887047AE
:10497C00F0B5C646150000B504001E000268EFF342
:10498C00108172B61368002BFCD0BFF35F8F042329
:10499C00E356002B2DDB2268BFF35F8F00201060E5
:1049AC0081F31088D0221206127852B290469A42A5
:1049BC0003D1002080BCB846F0BD00270BE0236873
:1049CC00BFF35F8F1F6081F310882800310000F067
:1049DC00DBFE0028EDD12268EFF3108172B613686C
:1049EC00002BFCD0BFF35F8F23797F2BE7D9434695
:1049FC0002E0D0231B061B6823712368BFF35F8F73
:104A0C0000221A6081F310880120D3E7F0B5C64666
:104A1C0000B50D00040000F0E7FEFA2206000F00BE
:104A2C00002328000021920000F0C6FE80233618D7
:104A3C004F411B069F4202D30126174F7642D023CB
:104A4C001B061B68002598460BE02368BFF35F8F9D
:104A5C001D6081F310883000390000F095FE0028AD
:104A6C0018D12268EFF3108172B61368002BFCD0BA
:104A7C00BFF35F8F23797F2BE7D9434623712368DC
:104A8C00BFF35F8F00221A6081F31088012080BC75
:104A9C00B846F0BD0020FAE7FFFFFF7F0268EFF396
:104AAC00108172B61368002BFCD0BFF35F8FFF230D
:104ABC0003710368BFF35F8F00221A6081F31088C3
:104ACC0040BF704710B5084C2378002B0AD18023C7
:104ADC00064807495B051A68C25004338B42FAD169
:104AEC000123237010BDC046D0200020FC190010FB
:104AFC000001001010B5014B984710BDFD190020A6
:104B0C00034B1A68C0239B009343024A13607047FF
:104B1C000C8001400C900140054B1A6880239B00CF
:104B2C005340C02292001340024A13607047C046A3
:104B3C000C8001400C9001401423F0B5D6464F4632
:104B4C0046469A46814618880433C0B598460E00EE
:104B5C001B8826491400984753460700188843467B
:104B6C0023491B889847534605001888434621491A
:104B7C001B8898478046FFF7A5FFB847A847FFF763
:104B8C00CBFF221E20D0C02108270220490511E0AE
:104B9C00002C14D0131B0D2B20D9002D0AD0230070
:104BAC00002A05D00B6E013A3370130001362343F3
:104BBC00002B09D03D008B6A1D401842E8D1002D16
:104BCC00EDD123001343F5D1FFF79AFFC047FFF750
:104BDC0091FFE0BCBA46B146A846F0BD4B461B78E7
:104BEC00013C0B6601239C46E144E8E74946000082
:104BFC0045580000464300000022154B10B59A6042
:104C0C00DA601A615A619A61DA611A625A629A62BE
:104C1C00DA621A635A639A63DA631A645A649A649E
:104C2C00DA641A655A659A65DA651A665A669A667E
:104C3C00DA661A675A679A67DA67F03292000021CF
:104C4C00044800F0C1FD044B044A1A6010BDC04674
:104C5C0000001050A81B0020701F00208001105075
:104C6C00F0B557464E464546DE46E0B5254B002589
:104C7C009F6D012687B0002F23D0234B994601232B
:104C8C009B46224B984601E0202D1AD032002C0076
:104C9C000135B2463A40EDB27600002AF4D04B46CC
:104CAC0052469A655B46640864002B40E418640124
:104CBC004444200000F052FC002809D153469F4385
:104CCC00E2D107B0F0BCBB46B246A946A046F0BD47
:104CDC00E28AA37802A801920021062206300093F2
:104CEC0000F072FDE02302A9DB008B80009B019A8F
:104CFC000B7203A80121059200F050FC200000F07B
:104D0C00C9FBDBE70000115000301150681B00207C
:104D1C009823F0B5C646CD4A00B5D55880232E0051
:104D2C009B02102484B01E401D427AD0C84BC94C43
:104D3C009A6AC94B00261A603B23E35C022B00D114
:104D4C000EE17B23E35C022B00D126E1BB23E35C69
:104D5C00022B00D115E1FB23E35C022B00D14FE1C8
:104D6C003C23FF33E35C022B00D13CE17C23FF337B
:104D7C00E35C022B00D129E1BC23FF33E35C022B63
:104D8C0000D116E1FC23FF33E35C022B00D1BEE122
:104D9C00B24BE35C022B00D1AEE1B14BE35C022BD6
:104DAC0000D19DE1AF4BE35C022B00D18CE1AE4B0B
:104DBC00E35C022B00D17BE1AC4BE35C022B00D11A
:104DCC006AE1AB4BE35C022B00D125E1A94BE35C20
:104DDC00022B00D1A7E1A84BE35C022B00D1BEE172
:104DEC00002E08D1A54B1B78002B04D18021A44A9E
:104DFC0090338902D150954B0A229C6C6B46002152
:104E0C00981D00F0E1FCC02301AE9B0064053380CB
:104E1C003000640D01218026029400F0BFFB994CF8
:104E2C00B602EB0600D58FE080235B021D4232D028
:104E3C001E43012302249846864FBB7E002B14D0C0
:104E4C0000F0B2FC012800D982E0C0220021380019
:104E5C00920100F025FB380000F01CFB00F0A4FCD4
:104E6C00012802D9864B5C661C664346FB702037D2
:104E7C00012C01D00124E0E7C023834ADB0001931D
:104E8C0002AB03CA03C3012101A800F087FB8022F7
:104E9C007B4B92021A6580235B011D420ED180234D
:104EAC00DB011D4226D180231B021D4238D1AE42AC
:104EBC0000D0D1E104B080BCB846F0BD00221E4346
:104ECC00624B01AC1A60FFF797FE6B460A22002179
:104EDC00981D00F079FC80235B00238001212000C9
:104EEC0000F05CFB8022664B12031A658023DB0109
:104EFC001D42D8D01E436B460A220021981D00F09B
:104F0C0063FC802301ACDB0023800121200000F036
:104F1C0045FB10225A4B1A6580231B021D42C6D03A
:104F2C001E436B460A220021981D00F04DFCA02365
:104F3C0001ACDB0023800121200000F02FFB80223C
:104F4C004F4B12011A65B2E7FFF78AFE26006BE79A
:104F5C004E4B3E4A1C66536E2340A342FBD174E772
:104F6C003833E65C002E00D1EBE60233E25C002A1B
:104F7C0000D1E6E6200000222030E25400F0B8FA1E
:104F8C00DFE6B833E75C002F00D1E4E60233E25CE5
:104F9C00002A00D020E13E00DDE67833E75C002FEC
:104FAC0000D1D3E60233E25C002A00D00CE13E00D3
:104FBC00CCE6B933FF33E75C002F00D1E2E60233D5
:104FCC00E25C002A00D0F6E03E00DBE67933FF33EA
:104FDC00E75C002F00D1CFE60233E25C002A00D060
:104FEC00E0E03E00C8E63933FF33E75C002F00D128
:104FFC00BCE60233E25C002A00D0CAE03E00B5E613
:10500C00F833E75C002F00D1AAE60233E25C002AF9
:10501C0000D0B6E03E00A3E61D4BE75C002F00D1AC
:10502C00D4E60233E25C002A00D00EE1114BE35CC3
:10503C00022B00D189E0104BE35C022B00D0DAE6A6
:10504C00144BE35C002B00D08EE0D4E60000115032
:10505C0000400540681B0020601B00203B02000044
:10506C007B020000BB020000FB0200003B030000BF
:10507C007B030000BB030000FB030000CE200020DC
:10508C000030115010000200000010500020115090
:10509C007A030000FA030000724BE75C002F00D18A
:1050AC008FE60233E25C002A00D0C6E03E0088E6C0
:1050BC006D4BE75C002F00D17EE60233E25C002AE8
:1050CC0000D0B2E03E0077E6684BE75C002F00D1E1
:1050DC006DE60233E25C002A00D09EE03E0066E6FC
:1050EC00634BE75C002F00D15CE60233E25C002AE4
:1050FC0000D08AE03E0055E65E4BE75C002F00D105
:10510C004BE60233E25C002A77D13E0045E6F933E8
:10511C00FF33E75C002F00D13AE60233E25C002A51
:10512C0062D13E0034E6544BE35C002B00D152E6D6
:10513C00EF239B00E25C002A00D17CE70022E254C2
:10514C001C3BE01800F0D4F975E74B4BE35C002BEB
:10515C00EED14A4BE35C022B00D04CE63E00484BB0
:10516C00E35C002B00D13BE6FF239B00E25C002AB2
:10517C0000D140E60022E2541C3BE01800F0B8F9E4
:10518C0039E620000022E030E2543E0000F0B0F995
:10519C00E6E5200000222130FF30E2543E0000F012
:1051AC00A7F9E3E5200000226130FF30E2543E0015
:1051BC0000F09EF9E0E520000022A130FF30E2541F
:1051CC003E0000F095F9DDE5200000226030E2544D
:1051DC003E0000F08DF9B9E520000022A030E25429
:1051EC003E0000F085F9B6E520000022E130FF30EA
:1051FC00E2543E0000F07CF9CAE50022E2541C3B6C
:10520C00E01800F075F93E00C7E50022E2541C3BA3
:10521C00E01800F06DF93E00C4E50022E2541C3B9E
:10522C00E01800F065F93E00C1E50022E2541C3B99
:10523C00E01800F05DF93E00BEE50022E2541C3B94
:10524C00E01800F055F93E00BBE50022E2541C3B8F
:10525C00E01800F04DF9E9E631000A48694000F029
:10526C00CBFAC0463A030000FA020000BA02000072
:10527C007A0200003A020000BA030000FB030000AF
:10528C00FA030000F8450010F0B5D6464F464646E6
:10529C00C0B50200838A008B8A46041C984200D950
:1052AC001C1CD57880262800471EB841A4B2F600F5
:1052BC00264340033043012675401B1BD57055789F
:1052CC009BB29382002D37D15146D6688D01611E59
:1052DC00761988461569002C29D006293AD933004D
:1052EC002B439B0736D16B1CF31A022B32D9231F8D
:1052FC009B0801339C4600270023E9580137F150E5
:10530C000433BC45F9D8634641469B00ED18F618AA
:10531C00CF1A9C4209D02B783370002F05D06B78B4
:10532C007370012F01D0AB78B3701569938A2D1966
:10533C001561802212021043002B02D18023DB0165
:10534C0018435346002B00D00004E0BCBA46B146CB
:10535C00A846F0BD0023EF5CF75401339C42FAD110
:10536C001569938AE3E7C0468368F0B51B680500AE
:10537C00002900D01B0C9B05980D6B78002B08D1D5
:10538C00EB8AC318EB822B8B834201D90023AB82AF
:10539C00F0BDEB688901461EB4462A695C180028EA
:1053AC0027D0062E2BD901315B18D31A022B26D904
:1053BC00130023439B0722D100230021061FB608AC
:1053CC000136E7580131D75004338E42F9D8634681
:1053DC00B600A41992199F1BB04209D02378137000
:1053EC00002F05D063785370012F01D0A3789370F0
:1053FC002A69EB8A1218C318EB822A61C3E70023CF
:10540C00E15CD15401339842FAD12A69F1E7C046E4
:10541C0010B50400836800211B68FFF7A5FF6368C3
:10542C001B685B0002D5238B834200D010BD012189
:10543C002000FFF799FFF9E7084A0300126C0020DF
:10544C00920703D49A78D209012A00D07047D87EEB
:10545C00023843425841C0B2F8E7C0460000115030
:10546C0010B5FFF7E9FF00280CD00749074B8C4615
:10547C00074A9B6A126863449B1A0020C6229A4210
:10548C004041C0B210BDC046E0FCFFFF00400540EB
:10549C00601B002000238376436103617047C04684
:1054AC0010B58368002901D01C682140002A12D055
:1054BC008024E400114322420DD01A6822420CD100
:1054CC00084A0A401A60084A126C920703D40C234B
:1054DC00033BFDD28368196010BD8178034800F04E
:1054EC008BF9C046FFFBFFFF000011500C4600106B
:1054FC00436870B5002180251E680400FFF7C4FEC8
:10550C00134B6D011B6C05439B070FD5A3785B06F2
:10551C000FD0104B1E4080239B0533436268002143
:10552C00136020002A00FFF7BBFF70BDA378DB09D6
:10553C00EFD0A38A002BECD001212000FFF7A4FEB2
:10554C00A023054ADB05324005431343E6E7C0467A
:10555C0000001150FFFFFFAFFFFFFFDF70B5857E2E
:10556C000400002D14D0FFF753FFA38A002B01D1A8
:10557C00280070BD2000FFF773FF002803D0012323
:10558C0000252377F4E72000FFF7B2FF0025EFE7B3
:10559C008178014800F030F92C460010F0B5CE4669
:1055AC00474680B5437805000E0085B0062B08D819
:1055BC006C4A9B00D3589F466B4A13780133DBB27D
:1055CC0013706A4B1C686269EFF3108172B6136832
:1055DC00002BFCD0BFF35F8FA1612000290000F0ED
:1055EC00DBF86269A369BFF35F8F0021116083F35D
:1055FC001088002804D105B0C0BCB946B046F0BD37
:10560C0032006978287800F0E7F8F4E70121584B6C
:10561C001A788A431A701A7801318A431A70002258
:10562C005A701A7802318A431A70CAE75149524F9C
:10563C00894652490024002388463A7812E04346B2
:10564C001B6861015B18002B06D0DB69002B03D0B3
:10565C006968287898473A780134E4B2511C2300E1
:10566C00A14217DBA242EAD89B1A5B014B44ECE740
:10567C003F4B1A78D207BED504211A780A431A7008
:10568C009FE73B4B1A78D207B5D504211A788A4389
:10569C001A7096E7364F3B785B072BD504223B7884
:1056AC00002193433B706B460632981D00F08CF83A
:1056BC002B7801AC2370052363702C4B1B68984628
:1056CC005A69EFF3108172B61368002BFCD0BFF34C
:1056DC005F8F434640469961210000F05DF84346D8
:1056EC005A699B69BFF35F8F0021116083F31088A7
:1056FC00002831D1FB78DB0700D47CE76B460A220B
:10570C000021981D00F060F82B7801AC2370032366
:10571C0063706B686360154B1D686A69EFF31081E9
:10572C0072B61368002BFCD0BFF35F8FA961280001
:10573C00210000F031F86A69AB69BFF35F8F00217B
:10574C00116083F31088002800D154E7320061788F
:10575C00207800F041F84EE732006178207800F0B4
:10576C003BF8C7E7BC480010CF2000206C16002087
:10577C0014160020D8480010CD200020E81200207C
:10578C007047C0460000000001B40248844601BCCA
:10579C00604700BFF10F001001B40248844601BC01
:1057AC00604700BFD540001001B40248844601BCDC
:1057BC00604700BFF102001001B40248844601BCEE
:1057CC00604700BFF917001001B40248844601BCC1
:1057DC00604700BFA518001001B40248844601BC04
:1057EC00604700BF8926001001B40248844601BC02
:1057FC00604700BFF510001001B40248844601BC9C
:10580C00604700BFFD020010100000000000000007
:10581C000000010000000000000000000000020079
:10582C000000000000000000000003000000000069
:10583C00000000000000FF000000000001B54868F7
:10584C0001318E460047704609380149884701BD31
:10585C0049070010000000000000000000000000DC
:10586C00000000000000000060100020000000009C
:10587C00503300004C33000054330000523300000E
:10588C004D5300004D4300005334000043340000DE
:10589C00591E0010091E0010791D0010F11C00107B
:1058AC0000000000000100007016002010000C0029
:1058BC0000000000000000000000000000000000DC
:1058CC0000000000FF0000000000000000000000CD
:04000005100001E9FD
:00000001FF
